{
  "_format": "hh-sol-artifact-1",
  "contractName": "Assessment",
  "sourceName": "contracts/Assessment.sol",
  "abi": [
    {
      "inputs": [
        {
          "internalType": "uint256",
          "name": "initBalance",
          "type": "uint256"
        }
      ],
      "stateMutability": "payable",
      "type": "constructor"
    },
    {
      "inputs": [
        {
          "internalType": "uint256",
          "name": "balance",
          "type": "uint256"
        },
        {
          "internalType": "uint256",
          "name": "withdrawAmount",
          "type": "uint256"
        }
      ],
      "name": "InsufficientBalance",
      "type": "error"
    },
    {
      "anonymous": false,
      "inputs": [
        {
          "indexed": false,
          "internalType": "uint256",
          "name": "amount",
          "type": "uint256"
        }
      ],
      "name": "Deposit",
      "type": "event"
    },
    {
      "anonymous": false,
      "inputs": [
        {
          "indexed": false,
          "internalType": "uint256",
          "name": "taskId",
          "type": "uint256"
        },
        {
          "indexed": false,
          "internalType": "string",
          "name": "description",
          "type": "string"
        }
      ],
      "name": "TaskAdded",
      "type": "event"
    },
    {
      "anonymous": false,
      "inputs": [
        {
          "indexed": false,
          "internalType": "uint256",
          "name": "taskId",
          "type": "uint256"
        }
      ],
      "name": "TaskCompleted",
      "type": "event"
    },
    {
      "anonymous": false,
      "inputs": [
        {
          "indexed": false,
          "internalType": "uint256",
          "name": "amount",
          "type": "uint256"
        }
      ],
      "name": "Withdraw",
      "type": "event"
    },
    {
      "inputs": [
        {
          "internalType": "string",
          "name": "_description",
          "type": "string"
        }
      ],
      "name": "addTask",
      "outputs": [],
      "stateMutability": "nonpayable",
      "type": "function"
    },
    {
      "inputs": [],
      "name": "balance",
      "outputs": [
        {
          "internalType": "uint256",
          "name": "",
          "type": "uint256"
        }
      ],
      "stateMutability": "view",
      "type": "function"
    },
    {
      "inputs": [
        {
          "internalType": "uint256",
          "name": "_amount",
          "type": "uint256"
        }
      ],
      "name": "deposit",
      "outputs": [],
      "stateMutability": "payable",
      "type": "function"
    },
    {
      "inputs": [],
      "name": "getBalance",
      "outputs": [
        {
          "internalType": "uint256",
          "name": "",
          "type": "uint256"
        }
      ],
      "stateMutability": "view",
      "type": "function"
    },
    {
      "inputs": [],
      "name": "getTasks",
      "outputs": [
        {
          "components": [
            {
              "internalType": "uint256",
              "name": "id",
              "type": "uint256"
            },
            {
              "internalType": "string",
              "name": "description",
              "type": "string"
            },
            {
              "internalType": "bool",
              "name": "completed",
              "type": "bool"
            }
          ],
          "internalType": "struct Assessment.Task[]",
          "name": "",
          "type": "tuple[]"
        }
      ],
      "stateMutability": "view",
      "type": "function"
    },
    {
      "inputs": [
        {
          "internalType": "uint256",
          "name": "_taskId",
          "type": "uint256"
        }
      ],
      "name": "markTaskCompleted",
      "outputs": [],
      "stateMutability": "nonpayable",
      "type": "function"
    },
    {
      "inputs": [],
      "name": "owner",
      "outputs": [
        {
          "internalType": "address payable",
          "name": "",
          "type": "address"
        }
      ],
      "stateMutability": "view",
      "type": "function"
    },
    {
      "inputs": [
        {
          "internalType": "uint256",
          "name": "_withdrawAmount",
          "type": "uint256"
        }
      ],
      "name": "withdraw",
      "outputs": [],
      "stateMutability": "nonpayable",
      "type": "function"
    }
  ],
  "bytecode": "0x608060405260405162001415380380620014158339818101604052810190620000299190620000b7565b336000806101000a81548173ffffffffffffffffffffffffffffffffffffffff021916908373ffffffffffffffffffffffffffffffffffffffff1602179055508060018190555050620000e9565b600080fd5b6000819050919050565b62000091816200007c565b81146200009d57600080fd5b50565b600081519050620000b18162000086565b92915050565b600060208284031215620000d057620000cf62000077565b5b6000620000e084828501620000a0565b91505092915050565b61131c80620000f96000396000f3fe60806040526004361061007a5760003560e01c8063672385621161004e57806367238562146101275780638da5cb5b14610150578063b69ef8a81461017b578063b6b55f25146101a65761007a565b80620b2bda1461007f57806304a87e38146100a857806312065fe0146100d35780632e1a7d4d146100fe575b600080fd5b34801561008b57600080fd5b506100a660048036038101906100a19190610879565b6101c2565b005b3480156100b457600080fd5b506100bd61031d565b6040516100ca9190610a72565b60405180910390f35b3480156100df57600080fd5b506100e8610433565b6040516100f59190610aa3565b60405180910390f35b34801561010a57600080fd5b5061012560048036038101906101209190610879565b61043d565b005b34801561013357600080fd5b5061014e60048036038101906101499190610bf3565b61058e565b005b34801561015c57600080fd5b506101656106ff565b6040516101729190610c7d565b60405180910390f35b34801561018757600080fd5b50610190610723565b60405161019d9190610aa3565b60405180910390f35b6101c060048036038101906101bb9190610879565b610729565b005b60008054906101000a900473ffffffffffffffffffffffffffffffffffffffff1673ffffffffffffffffffffffffffffffffffffffff163373ffffffffffffffffffffffffffffffffffffffff1614610250576040517f08c379a000000000000000000000000000000000000000000000000000000000815260040161024790610d1b565b60405180910390fd5b60005b60028054905081101561031957816002828154811061027557610274610d3b565b5b90600052602060002090600302016000015403610306576001600282815481106102a2576102a1610d3b565b5b906000526020600020906003020160020160006101000a81548160ff0219169083151502179055507fc1fa7142cfb933d0855114a3bffde296944c30b727f297c14d0db4d553d3a5c7826040516102f99190610aa3565b60405180910390a1610319565b808061031190610d99565b915050610253565b5050565b60606002805480602002602001604051908101604052809291908181526020016000905b8282101561042a57838290600052602060002090600302016040518060600160405290816000820154815260200160018201805461037e90610e10565b80601f01602080910402602001604051908101604052809291908181526020018280546103aa90610e10565b80156103f75780601f106103cc576101008083540402835291602001916103f7565b820191906000526020600020905b8154815290600101906020018083116103da57829003601f168201915b505050505081526020016002820160009054906101000a900460ff16151515158152505081526020019060010190610341565b50505050905090565b6000600154905090565b60008054906101000a900473ffffffffffffffffffffffffffffffffffffffff1673ffffffffffffffffffffffffffffffffffffffff163373ffffffffffffffffffffffffffffffffffffffff16146104cb576040517f08c379a00000000000000000000000000000000000000000000000000000000081526004016104c290610eb3565b60405180910390fd5b6000600154905081600154101561051d57600154826040517fcf479181000000000000000000000000000000000000000000000000000000008152600401610514929190610ed3565b60405180910390fd5b816001600082825461052f9190610efc565b9250508190555081816105429190610efc565b6001541461055357610552610f30565b5b7f5b6b431d4476a211bb7d41c20d1aab9ae2321deee0d20be3d9fc9b1093fa6e3d826040516105829190610aa3565b60405180910390a15050565b60008054906101000a900473ffffffffffffffffffffffffffffffffffffffff1673ffffffffffffffffffffffffffffffffffffffff163373ffffffffffffffffffffffffffffffffffffffff161461061c576040517f08c379a000000000000000000000000000000000000000000000000000000000815260040161061390610fab565b60405180910390fd5b6002604051806060016040528060035481526020018381526020016000151581525090806001815401808255809150506001900390600052602060002090600302016000909190919091506000820151816000015560208201518160010190816106869190611177565b5060408201518160020160006101000a81548160ff02191690831515021790555050507f2ee7ce8bac091b03a0c391c07ee88a246bdd72bdc6b1ef1ce4d99220595d32c5600354826040516106dc929190611282565b60405180910390a1600360008154809291906106f790610d99565b919050555050565b60008054906101000a900473ffffffffffffffffffffffffffffffffffffffff1681565b60015481565b6000600154905060008054906101000a900473ffffffffffffffffffffffffffffffffffffffff1673ffffffffffffffffffffffffffffffffffffffff163373ffffffffffffffffffffffffffffffffffffffff16146107be576040517f08c379a00000000000000000000000000000000000000000000000000000000081526004016107b590610eb3565b60405180910390fd5b81600160008282546107d091906112b2565b9250508190555081816107e391906112b2565b600154146107f4576107f3610f30565b5b7f4d6ce1e535dbade1c23defba91e23b8f791ce5edc0cc320257a2b364e4e38426826040516108239190610aa3565b60405180910390a15050565b6000604051905090565b600080fd5b600080fd5b6000819050919050565b61085681610843565b811461086157600080fd5b50565b6000813590506108738161084d565b92915050565b60006020828403121561088f5761088e610839565b5b600061089d84828501610864565b91505092915050565b600081519050919050565b600082825260208201905092915050565b6000819050602082019050919050565b6108db81610843565b82525050565b600081519050919050565b600082825260208201905092915050565b60005b8381101561091b578082015181840152602081019050610900565b60008484015250505050565b6000601f19601f8301169050919050565b6000610943826108e1565b61094d81856108ec565b935061095d8185602086016108fd565b61096681610927565b840191505092915050565b60008115159050919050565b61098681610971565b82525050565b60006060830160008301516109a460008601826108d2565b50602083015184820360208601526109bc8282610938565b91505060408301516109d1604086018261097d565b508091505092915050565b60006109e8838361098c565b905092915050565b6000602082019050919050565b6000610a08826108a6565b610a1281856108b1565b935083602082028501610a24856108c2565b8060005b85811015610a605784840389528151610a4185826109dc565b9450610a4c836109f0565b925060208a01995050600181019050610a28565b50829750879550505050505092915050565b60006020820190508181036000830152610a8c81846109fd565b905092915050565b610a9d81610843565b82525050565b6000602082019050610ab86000830184610a94565b92915050565b600080fd5b600080fd5b7f4e487b7100000000000000000000000000000000000000000000000000000000600052604160045260246000fd5b610b0082610927565b810181811067ffffffffffffffff82111715610b1f57610b1e610ac8565b5b80604052505050565b6000610b3261082f565b9050610b3e8282610af7565b919050565b600067ffffffffffffffff821115610b5e57610b5d610ac8565b5b610b6782610927565b9050602081019050919050565b82818337600083830152505050565b6000610b96610b9184610b43565b610b28565b905082815260208101848484011115610bb257610bb1610ac3565b5b610bbd848285610b74565b509392505050565b600082601f830112610bda57610bd9610abe565b5b8135610bea848260208601610b83565b91505092915050565b600060208284031215610c0957610c08610839565b5b600082013567ffffffffffffffff811115610c2757610c2661083e565b5b610c3384828501610bc5565b91505092915050565b600073ffffffffffffffffffffffffffffffffffffffff82169050919050565b6000610c6782610c3c565b9050919050565b610c7781610c5c565b82525050565b6000602082019050610c926000830184610c6e565b92915050565b600082825260208201905092915050565b7f4f6e6c7920746865206f776e65722063616e206d61726b207461736b7320617360008201527f20636f6d706c6574656400000000000000000000000000000000000000000000602082015250565b6000610d05602a83610c98565b9150610d1082610ca9565b604082019050919050565b60006020820190508181036000830152610d3481610cf8565b9050919050565b7f4e487b7100000000000000000000000000000000000000000000000000000000600052603260045260246000fd5b7f4e487b7100000000000000000000000000000000000000000000000000000000600052601160045260246000fd5b6000610da482610843565b91507fffffffffffffffffffffffffffffffffffffffffffffffffffffffffffffffff8203610dd657610dd5610d6a565b5b600182019050919050565b7f4e487b7100000000000000000000000000000000000000000000000000000000600052602260045260246000fd5b60006002820490506001821680610e2857607f821691505b602082108103610e3b57610e3a610de1565b5b50919050565b7f596f7520617265206e6f7420746865206f776e6572206f66207468697320616360008201527f636f756e74000000000000000000000000000000000000000000000000000000602082015250565b6000610e9d602583610c98565b9150610ea882610e41565b604082019050919050565b60006020820190508181036000830152610ecc81610e90565b9050919050565b6000604082019050610ee86000830185610a94565b610ef56020830184610a94565b9392505050565b6000610f0782610843565b9150610f1283610843565b9250828203905081811115610f2a57610f29610d6a565b5b92915050565b7f4e487b7100000000000000000000000000000000000000000000000000000000600052600160045260246000fd5b7f4f6e6c7920746865206f776e65722063616e20616464207461736b7300000000600082015250565b6000610f95601c83610c98565b9150610fa082610f5f565b602082019050919050565b60006020820190508181036000830152610fc481610f88565b9050919050565b60008190508160005260206000209050919050565b60006020601f8301049050919050565b600082821b905092915050565b60006008830261102d7fffffffffffffffffffffffffffffffffffffffffffffffffffffffffffffffff82610ff0565b6110378683610ff0565b95508019841693508086168417925050509392505050565b6000819050919050565b600061107461106f61106a84610843565b61104f565b610843565b9050919050565b6000819050919050565b61108e83611059565b6110a261109a8261107b565b848454610ffd565b825550505050565b600090565b6110b76110aa565b6110c2818484611085565b505050565b5b818110156110e6576110db6000826110af565b6001810190506110c8565b5050565b601f82111561112b576110fc81610fcb565b61110584610fe0565b81016020851015611114578190505b61112861112085610fe0565b8301826110c7565b50505b505050565b600082821c905092915050565b600061114e60001984600802611130565b1980831691505092915050565b6000611167838361113d565b9150826002028217905092915050565b611180826108e1565b67ffffffffffffffff81111561119957611198610ac8565b5b6111a38254610e10565b6111ae8282856110ea565b600060209050601f8311600181146111e157600084156111cf578287015190505b6111d9858261115b565b865550611241565b601f1984166111ef86610fcb565b60005b82811015611217578489015182556001820191506020850194506020810190506111f2565b868310156112345784890151611230601f89168261113d565b8355505b6001600288020188555050505b505050505050565b6000611254826108e1565b61125e8185610c98565b935061126e8185602086016108fd565b61127781610927565b840191505092915050565b60006040820190506112976000830185610a94565b81810360208301526112a98184611249565b90509392505050565b60006112bd82610843565b91506112c883610843565b92508282019050808211156112e0576112df610d6a565b5b9291505056fea26469706673582212200e137df689fb76768ba2444e30603639fc13271f2667b5970d44e1a514c5d52c64736f6c63430008110033",
  "linkReferences": {},
  "deployedLinkReferences": {}
}